{
  "contractName": "OnChainManager",
  "abi": [
    {
      "inputs": [],
      "stateMutability": "nonpayable",
      "type": "constructor"
    },
    {
      "anonymous": false,
      "inputs": [
        {
          "indexed": false,
          "internalType": "uint256",
          "name": "id",
          "type": "uint256"
        },
        {
          "indexed": false,
          "internalType": "string",
          "name": "nome",
          "type": "string"
        },
        {
          "indexed": false,
          "internalType": "string",
          "name": "BlockchainAddress",
          "type": "string"
        },
        {
          "indexed": false,
          "internalType": "string",
          "name": "Address",
          "type": "string"
        },
        {
          "indexed": false,
          "internalType": "string",
          "name": "Abi",
          "type": "string"
        },
        {
          "indexed": false,
          "internalType": "address",
          "name": "proprietario",
          "type": "address"
        }
      ],
      "name": "ContrattoAggiunto",
      "type": "event"
    },
    {
      "anonymous": false,
      "inputs": [
        {
          "indexed": false,
          "internalType": "uint256",
          "name": "id",
          "type": "uint256"
        },
        {
          "indexed": false,
          "internalType": "string",
          "name": "nome",
          "type": "string"
        },
        {
          "indexed": false,
          "internalType": "address",
          "name": "proprietario",
          "type": "address"
        }
      ],
      "name": "ContrattoRimosso",
      "type": "event"
    },
    {
      "anonymous": false,
      "inputs": [
        {
          "indexed": false,
          "internalType": "string",
          "name": "nextAddress",
          "type": "string"
        },
        {
          "indexed": false,
          "internalType": "uint8",
          "name": "counter",
          "type": "uint8"
        }
      ],
      "name": "NextAddr",
      "type": "event"
    },
    {
      "inputs": [],
      "name": "numContratti",
      "outputs": [
        {
          "internalType": "uint256",
          "name": "",
          "type": "uint256"
        }
      ],
      "stateMutability": "view",
      "type": "function"
    },
    {
      "inputs": [],
      "name": "owner",
      "outputs": [
        {
          "internalType": "address",
          "name": "",
          "type": "address"
        }
      ],
      "stateMutability": "view",
      "type": "function"
    },
    {
      "inputs": [],
      "name": "setAddress1",
      "outputs": [],
      "stateMutability": "nonpayable",
      "type": "function"
    },
    {
      "inputs": [],
      "name": "setAddress2",
      "outputs": [],
      "stateMutability": "nonpayable",
      "type": "function"
    },
    {
      "inputs": [],
      "name": "setAddress3",
      "outputs": [],
      "stateMutability": "nonpayable",
      "type": "function"
    },
    {
      "inputs": [],
      "name": "getAddress1",
      "outputs": [
        {
          "internalType": "string",
          "name": "",
          "type": "string"
        }
      ],
      "stateMutability": "view",
      "type": "function"
    },
    {
      "inputs": [],
      "name": "getAddress2",
      "outputs": [
        {
          "internalType": "string",
          "name": "",
          "type": "string"
        }
      ],
      "stateMutability": "view",
      "type": "function"
    },
    {
      "inputs": [],
      "name": "getAddress3",
      "outputs": [
        {
          "internalType": "string",
          "name": "",
          "type": "string"
        }
      ],
      "stateMutability": "view",
      "type": "function"
    },
    {
      "inputs": [
        {
          "internalType": "string",
          "name": "nome",
          "type": "string"
        },
        {
          "internalType": "string",
          "name": "Address",
          "type": "string"
        },
        {
          "internalType": "string",
          "name": "Abi",
          "type": "string"
        }
      ],
      "name": "aggiungiContratto",
      "outputs": [],
      "stateMutability": "nonpayable",
      "type": "function"
    },
    {
      "inputs": [
        {
          "internalType": "uint256",
          "name": "_id",
          "type": "uint256"
        }
      ],
      "name": "rimuoviContratto",
      "outputs": [],
      "stateMutability": "nonpayable",
      "type": "function"
    },
    {
      "inputs": [
        {
          "internalType": "uint256",
          "name": "_id",
          "type": "uint256"
        },
        {
          "internalType": "address",
          "name": "_nuovoProprietario",
          "type": "address"
        }
      ],
      "name": "cambiaProprietario",
      "outputs": [],
      "stateMutability": "nonpayable",
      "type": "function"
    },
    {
      "inputs": [
        {
          "internalType": "uint256",
          "name": "_id",
          "type": "uint256"
        }
      ],
      "name": "getContracts",
      "outputs": [
        {
          "components": [
            {
              "internalType": "uint256",
              "name": "id",
              "type": "uint256"
            },
            {
              "internalType": "string",
              "name": "nome",
              "type": "string"
            },
            {
              "internalType": "string",
              "name": "BlockchainAddress",
              "type": "string"
            },
            {
              "internalType": "string",
              "name": "Address",
              "type": "string"
            },
            {
              "internalType": "string",
              "name": "Abi",
              "type": "string"
            },
            {
              "internalType": "address",
              "name": "proprietario",
              "type": "address"
            }
          ],
          "internalType": "struct OnChainManager.Contract",
          "name": "",
          "type": "tuple"
        }
      ],
      "stateMutability": "view",
      "type": "function"
    },
    {
      "inputs": [
        {
          "internalType": "address",
          "name": "_proprietario",
          "type": "address"
        }
      ],
      "name": "getContrattiByProprietario",
      "outputs": [
        {
          "internalType": "uint256[]",
          "name": "",
          "type": "uint256[]"
        }
      ],
      "stateMutability": "view",
      "type": "function"
    },
    {
      "inputs": [
        {
          "internalType": "uint8",
          "name": "counter",
          "type": "uint8"
        }
      ],
      "name": "setCounter",
      "outputs": [],
      "stateMutability": "nonpayable",
      "type": "function"
    },
    {
      "inputs": [],
      "name": "getCounter",
      "outputs": [
        {
          "internalType": "uint8",
          "name": "",
          "type": "uint8"
        }
      ],
      "stateMutability": "view",
      "type": "function"
    },
    {
      "inputs": [],
      "name": "getNextAddress",
      "outputs": [
        {
          "internalType": "string",
          "name": "",
          "type": "string"
        }
      ],
      "stateMutability": "nonpayable",
      "type": "function"
    }
  ],
  "bytecode": "0x60806040526000600660006101000a81548160ff021916908360ff16021790555034801561002c57600080fd5b50336000806101000a81548173ffffffffffffffffffffffffffffffffffffffff021916908373ffffffffffffffffffffffffffffffffffffffff1602179055506000600181905550611e92806100846000396000f3fe608060405234801561001057600080fd5b50600436106101005760003560e01c80637bfb45ef1161009757806391021984116100665780639102198414610263578063a25641c414610281578063da91c6101461028b578063db696b4b146102a757610100565b80637bfb45ef146101d95780638ada066e146102095780638da5cb5b146102275780638f2696af1461024557610100565b8063439e23fd116100d3578063439e23fd1461015357806354dc37351461018357806358958e14146101a15780637b9f3d52146101bd57610100565b8063191b2b791461010557806320af75571461010f57806328242ed714610119578063420cec3a14610135575b600080fd5b61010d6102c5565b005b610117610313565b005b610133600480360381019061012e9190611430565b610361565b005b61013d6104f0565b60405161014a919061193b565b60405180910390f35b61016d600480360381019061016891906114c7565b610582565b60405161017a91906119ed565b60405180910390f35b61018b6108b7565b604051610198919061193b565b60405180910390f35b6101bb60048036038101906101b691906114f0565b610949565b005b6101d760048036038101906101d291906114c7565b610a30565b005b6101f360048036038101906101ee9190611407565b610c02565b6040516102009190611919565b60405180910390f35b610211610e96565b60405161021e9190611ae5565b60405180910390f35b61022f610ead565b60405161023c91906118fe565b60405180910390f35b61024d610ed1565b60405161025a919061193b565b60405180910390f35b61026b611115565b604051610278919061193b565b60405180910390f35b6102896111a7565b005b6102a560048036038101906102a0919061152c565b6111f5565b005b6102af61122b565b6040516102bc9190611a0f565b60405180910390f35b6040518060400160405280601581526020017f687474703a2f2f3132372e302e302e313a37353438000000000000000000000081525060059080519060200190610310929190611231565b50565b6040518060400160405280601581526020017f687474703a2f2f3132372e302e302e313a3735343700000000000000000000008152506004908051906020019061035e929190611231565b50565b6001600081548092919061037490611cd0565b91905055506000610383610ed1565b90506040518060c0016040528060015481526020018581526020018281526020018481526020018381526020013373ffffffffffffffffffffffffffffffffffffffff16815250600260006001548152602001908152602001600020600082015181600001556020820151816001019080519060200190610405929190611231565b506040820151816002019080519060200190610422929190611231565b50606082015181600301908051906020019061043f929190611231565b50608082015181600401908051906020019061045c929190611231565b5060a08201518160050160006101000a81548173ffffffffffffffffffffffffffffffffffffffff021916908373ffffffffffffffffffffffffffffffffffffffff1602179055509050507f0d7271926a95223b7d82f71b947580376e3003d8439b64a6521dffc4cc7c895f60015485838686336040516104e296959493929190611a2a565b60405180910390a150505050565b6060600480546104ff90611c9e565b80601f016020809104026020016040519081016040528092919081815260200182805461052b90611c9e565b80156105785780601f1061054d57610100808354040283529160200191610578565b820191906000526020600020905b81548152906001019060200180831161055b57829003601f168201915b5050505050905090565b61058a6112b7565b6000600260008481526020019081526020016000206000015414156105e4576040517f08c379a00000000000000000000000000000000000000000000000000000000081526004016105db906119cd565b60405180910390fd5b6000600260008481526020019081526020016000206040518060c00160405290816000820154815260200160018201805461061e90611c9e565b80601f016020809104026020016040519081016040528092919081815260200182805461064a90611c9e565b80156106975780601f1061066c57610100808354040283529160200191610697565b820191906000526020600020905b81548152906001019060200180831161067a57829003601f168201915b505050505081526020016002820180546106b090611c9e565b80601f01602080910402602001604051908101604052809291908181526020018280546106dc90611c9e565b80156107295780601f106106fe57610100808354040283529160200191610729565b820191906000526020600020905b81548152906001019060200180831161070c57829003601f168201915b5050505050815260200160038201805461074290611c9e565b80601f016020809104026020016040519081016040528092919081815260200182805461076e90611c9e565b80156107bb5780601f10610790576101008083540402835291602001916107bb565b820191906000526020600020905b81548152906001019060200180831161079e57829003601f168201915b505050505081526020016004820180546107d490611c9e565b80601f016020809104026020016040519081016040528092919081815260200182805461080090611c9e565b801561084d5780601f106108225761010080835404028352916020019161084d565b820191906000526020600020905b81548152906001019060200180831161083057829003601f168201915b505050505081526020016005820160009054906101000a900473ffffffffffffffffffffffffffffffffffffffff1673ffffffffffffffffffffffffffffffffffffffff1673ffffffffffffffffffffffffffffffffffffffff1681525050905080915050919050565b6060600580546108c690611c9e565b80601f01602080910402602001604051908101604052809291908181526020018280546108f290611c9e565b801561093f5780601f106109145761010080835404028352916020019161093f565b820191906000526020600020905b81548152906001019060200180831161092257829003601f168201915b5050505050905090565b60008054906101000a900473ffffffffffffffffffffffffffffffffffffffff1673ffffffffffffffffffffffffffffffffffffffff163373ffffffffffffffffffffffffffffffffffffffff16146109d7576040517f08c379a00000000000000000000000000000000000000000000000000000000081526004016109ce9061198d565b60405180910390fd5b806002600084815260200190815260200160002060050160006101000a81548173ffffffffffffffffffffffffffffffffffffffff021916908373ffffffffffffffffffffffffffffffffffffffff1602179055505050565b60008054906101000a900473ffffffffffffffffffffffffffffffffffffffff1673ffffffffffffffffffffffffffffffffffffffff163373ffffffffffffffffffffffffffffffffffffffff161480610aeb57503373ffffffffffffffffffffffffffffffffffffffff166002600083815260200190815260200160002060050160009054906101000a900473ffffffffffffffffffffffffffffffffffffffff1673ffffffffffffffffffffffffffffffffffffffff16145b610b2a576040517f08c379a0000000000000000000000000000000000000000000000000000000008152600401610b21906119ad565b60405180910390fd5b60026000828152602001908152602001600020600080820160009055600182016000610b569190611303565b600282016000610b669190611303565b600382016000610b769190611303565b600482016000610b869190611303565b6005820160006101000a81549073ffffffffffffffffffffffffffffffffffffffff021916905550507f66b632079e548b9d697132e22a8c06ea21cbae58e9b31cf73338a7dd6719ff92816002600084815260200190815260200160002060010133604051610bf793929190611aa7565b60405180910390a150565b6060600060015467ffffffffffffffff811115610c48577f4e487b7100000000000000000000000000000000000000000000000000000000600052604160045260246000fd5b604051908082528060200260200182016040528015610c765781602001602082028036833780820191505090505b509050600080600190505b6001548111610d72578473ffffffffffffffffffffffffffffffffffffffff166002600083815260200190815260200160002060050160009054906101000a900473ffffffffffffffffffffffffffffffffffffffff1673ffffffffffffffffffffffffffffffffffffffff161415610d5f576002600082815260200190815260200160002060000154838381518110610d44577f4e487b7100000000000000000000000000000000000000000000000000000000600052603260045260246000fd5b6020026020010181815250508180610d5b90611cd0565b9250505b8080610d6a90611cd0565b915050610c81565b5060008167ffffffffffffffff811115610db5577f4e487b7100000000000000000000000000000000000000000000000000000000600052604160045260246000fd5b604051908082528060200260200182016040528015610de35781602001602082028036833780820191505090505b50905060005b82811015610e8a57838181518110610e2a577f4e487b7100000000000000000000000000000000000000000000000000000000600052603260045260246000fd5b6020026020010151828281518110610e6b577f4e487b7100000000000000000000000000000000000000000000000000000000600052603260045260246000fd5b6020026020010181815250508080610e8290611cd0565b915050610de9565b50809350505050919050565b6000600660009054906101000a900460ff16905090565b60008054906101000a900473ffffffffffffffffffffffffffffffffffffffff1681565b606060006040518060200160405280600081525090506000610ef1610e96565b905060008160ff161415610f915760038054610f0c90611c9e565b80601f0160208091040260200160405190810160405280929190818152602001828054610f3890611c9e565b8015610f855780601f10610f5a57610100808354040283529160200191610f85565b820191906000526020600020905b815481529060010190602001808311610f6857829003601f168201915b505050505091506110cb565b60018160ff16141561102f5760048054610faa90611c9e565b80601f0160208091040260200160405190810160405280929190818152602001828054610fd690611c9e565b80156110235780601f10610ff857610100808354040283529160200191611023565b820191906000526020600020905b81548152906001019060200180831161100657829003601f168201915b505050505091506110ca565b60028160ff1614156110c9576005805461104890611c9e565b80601f016020809104026020016040519081016040528092919081815260200182805461107490611c9e565b80156110c15780601f10611096576101008083540402835291602001916110c1565b820191906000526020600020905b8154815290600101906020018083116110a457829003601f168201915b505050505091505b5b5b6110d4816111f5565b7f35e489a1ce519a397b8b801af0582a769d3afbe61085e52aa454c31b7972efe7828260405161110592919061195d565b60405180910390a1819250505090565b60606003805461112490611c9e565b80601f016020809104026020016040519081016040528092919081815260200182805461115090611c9e565b801561119d5780601f106111725761010080835404028352916020019161119d565b820191906000526020600020905b81548152906001019060200180831161118057829003601f168201915b5050505050905090565b6040518060400160405280601581526020017f687474703a2f2f3132372e302e302e313a373534360000000000000000000000815250600390805190602001906111f2929190611231565b50565b60036001826112049190611bdc565b61120e9190611d19565b600660006101000a81548160ff021916908360ff16021790555050565b60015481565b82805461123d90611c9e565b90600052602060002090601f01602090048101928261125f57600085556112a6565b82601f1061127857805160ff19168380011785556112a6565b828001600101855582156112a6579182015b828111156112a557825182559160200191906001019061128a565b5b5090506112b39190611343565b5090565b6040518060c001604052806000815260200160608152602001606081526020016060815260200160608152602001600073ffffffffffffffffffffffffffffffffffffffff1681525090565b50805461130f90611c9e565b6000825580601f106113215750611340565b601f01602090049060005260206000209081019061133f9190611343565b5b50565b5b8082111561135c576000816000905550600101611344565b5090565b600061137361136e84611b31565b611b00565b90508281526020810184848401111561138b57600080fd5b611396848285611c5c565b509392505050565b6000813590506113ad81611e17565b92915050565b600082601f8301126113c457600080fd5b81356113d4848260208601611360565b91505092915050565b6000813590506113ec81611e2e565b92915050565b60008135905061140181611e45565b92915050565b60006020828403121561141957600080fd5b60006114278482850161139e565b91505092915050565b60008060006060848603121561144557600080fd5b600084013567ffffffffffffffff81111561145f57600080fd5b61146b868287016113b3565b935050602084013567ffffffffffffffff81111561148857600080fd5b611494868287016113b3565b925050604084013567ffffffffffffffff8111156114b157600080fd5b6114bd868287016113b3565b9150509250925092565b6000602082840312156114d957600080fd5b60006114e7848285016113dd565b91505092915050565b6000806040838503121561150357600080fd5b6000611511858286016113dd565b92505060206115228582860161139e565b9150509250929050565b60006020828403121561153e57600080fd5b600061154c848285016113f2565b91505092915050565b600061156183836118d1565b60208301905092915050565b61157681611c13565b82525050565b61158581611c13565b82525050565b600061159682611b86565b6115a08185611ba9565b93506115ab83611b61565b8060005b838110156115dc5781516115c38882611555565b97506115ce83611b9c565b9250506001810190506115af565b5085935050505092915050565b60006115f482611b91565b6115fe8185611bba565b935061160e818560208601611c6b565b61161781611e06565b840191505092915050565b600061162d82611b91565b6116378185611bcb565b9350611647818560208601611c6b565b61165081611e06565b840191505092915050565b6000815461166881611c9e565b6116728186611bcb565b9450600182166000811461168d576001811461169f576116d2565b60ff19831686526020860193506116d2565b6116a885611b71565b60005b838110156116ca578154818901526001820191506020810190506116ab565b808801955050505b50505092915050565b60006116e8605c83611bcb565b91507f536f6c6f20696c2070726f70726965746172696f2064656c6c276f6e6368616960008301527f6e20686120696c207065726d6573736f2064692063616d626961726520696c2060208301527f70726f70726965746172696f20646920756e20636f6e74726174746f000000006040830152606082019050919050565b6000611774605983611bcb565b91507f536f6c6f20696c2070726f70726965746172696f2064656c206f6e636861696e60008301527f206f2064656c20636f6e74726174746f20686120696c207065726d6573736f2060208301527f64692072696d756f7665726520756e20636f6e74726174746f000000000000006040830152606082019050919050565b6000611800601783611bcb565b91507f496c20636f6e74726174746f206e6f6e206573697374650000000000000000006000830152602082019050919050565b600060c08301600083015161184b60008601826118d1565b506020830151848203602086015261186382826115e9565b9150506040830151848203604086015261187d82826115e9565b9150506060830151848203606086015261189782826115e9565b915050608083015184820360808601526118b182826115e9565b91505060a08301516118c660a086018261156d565b508091505092915050565b6118da81611c45565b82525050565b6118e981611c45565b82525050565b6118f881611c4f565b82525050565b6000602082019050611913600083018461157c565b92915050565b60006020820190508181036000830152611933818461158b565b905092915050565b600060208201905081810360008301526119558184611622565b905092915050565b600060408201905081810360008301526119778185611622565b905061198660208301846118ef565b9392505050565b600060208201905081810360008301526119a6816116db565b9050919050565b600060208201905081810360008301526119c681611767565b9050919050565b600060208201905081810360008301526119e6816117f3565b9050919050565b60006020820190508181036000830152611a078184611833565b905092915050565b6000602082019050611a2460008301846118e0565b92915050565b600060c082019050611a3f60008301896118e0565b8181036020830152611a518188611622565b90508181036040830152611a658187611622565b90508181036060830152611a798186611622565b90508181036080830152611a8d8185611622565b9050611a9c60a083018461157c565b979650505050505050565b6000606082019050611abc60008301866118e0565b8181036020830152611ace818561165b565b9050611add604083018461157c565b949350505050565b6000602082019050611afa60008301846118ef565b92915050565b6000604051905081810181811067ffffffffffffffff82111715611b2757611b26611dd7565b5b8060405250919050565b600067ffffffffffffffff821115611b4c57611b4b611dd7565b5b601f19601f8301169050602081019050919050565b6000819050602082019050919050565b60008190508160005260206000209050919050565b600081519050919050565b600081519050919050565b6000602082019050919050565b600082825260208201905092915050565b600082825260208201905092915050565b600082825260208201905092915050565b6000611be782611c4f565b9150611bf283611c4f565b92508260ff03821115611c0857611c07611d4a565b5b828201905092915050565b6000611c1e82611c25565b9050919050565b600073ffffffffffffffffffffffffffffffffffffffff82169050919050565b6000819050919050565b600060ff82169050919050565b82818337600083830152505050565b60005b83811015611c89578082015181840152602081019050611c6e565b83811115611c98576000848401525b50505050565b60006002820490506001821680611cb657607f821691505b60208210811415611cca57611cc9611da8565b5b50919050565b6000611cdb82611c45565b91507fffffffffffffffffffffffffffffffffffffffffffffffffffffffffffffffff821415611d0e57611d0d611d4a565b5b600182019050919050565b6000611d2482611c4f565b9150611d2f83611c4f565b925082611d3f57611d3e611d79565b5b828206905092915050565b7f4e487b7100000000000000000000000000000000000000000000000000000000600052601160045260246000fd5b7f4e487b7100000000000000000000000000000000000000000000000000000000600052601260045260246000fd5b7f4e487b7100000000000000000000000000000000000000000000000000000000600052602260045260246000fd5b7f4e487b7100000000000000000000000000000000000000000000000000000000600052604160045260246000fd5b6000601f19601f8301169050919050565b611e2081611c13565b8114611e2b57600080fd5b50565b611e3781611c45565b8114611e4257600080fd5b50565b611e4e81611c4f565b8114611e5957600080fd5b5056fea2646970667358221220fd7642d83e1582f9f70c0d0fd9f39b6aba02119dd1b163a40b6cd8a9b7328a9e64736f6c63430008000033",
  "immutableReferences": {},
  "source": "// SPDX-License-Identifier: UNLICENSED\npragma solidity >=0.8.0;\ncontract OnChainManager {\n    \n    address public owner; // l'indirizzo del proprietario del contratto\n    uint public numContratti; // il numero di contratti presenti\n    \n    struct Contract {\n        uint id;\n        string nome;\n        string BlockchainAddress;\n        string Address;\n        string Abi;\n        address proprietario;\n    }\n    \n    mapping(uint => Contract) private contracts; // mappa che associa l'id del contratto alla sua struttura\n    \n    event ContrattoAggiunto(uint id, string nome, string BlockchainAddress, string Address, string Abi, address proprietario); // evento generato quando un nuovo contratto viene aggiunto\n    event ContrattoRimosso(uint id, string nome, address proprietario); // evento generato quando un contratto viene rimosso\n    event NextAddr(string nextAddress, uint8 counter);\n\n    string private blockChain1;\n    string private blockChain2;\n    string private blockChain3;\n    uint8 private count = 0; \n\n    //cambiato il set degli indirizzi in modo che con solo onchain non possa essere modificato l'indirizzo dello\n    //shard su cui fare deploy dei contratti \n    function setAddress1() public{\n        blockChain1 = \"http://127.0.0.1:7546\";\n    }\n\n    function setAddress2() public{\n        blockChain2 = \"http://127.0.0.1:7547\";\n    }\n\n    function setAddress3() public{\n        blockChain3 = \"http://127.0.0.1:7548\";\n    }\n\n\n    function getAddress1() public view returns (string memory) {\n        return blockChain1;\n    }\n\n    function getAddress2() public view returns (string memory) {\n        return blockChain2;\n    }\n\n    function getAddress3() public view returns (string memory) {\n        return blockChain3;\n    }\n\n    constructor() {\n        owner = msg.sender;\n        numContratti = 0;\n    }\n    \n    //trovare modo per fare un controllo se Abi ha formato giusto????? \n    function aggiungiContratto(string memory nome, string memory Address, string memory Abi) public {\n        //require(msg.sender == owner, \"Solo il proprietario ha il permesso di aggiungere un contratto\");\n        numContratti++;\n        string memory BlockchainAddress = getNextAddress();\n        contracts[numContratti] = Contract(numContratti, nome, BlockchainAddress, Address, Abi, msg.sender);\n        emit ContrattoAggiunto(numContratti, nome, BlockchainAddress, Address, Abi, msg.sender);\n    }\n    \n    function rimuoviContratto(uint _id) public {\n        require(msg.sender == owner || contracts[_id].proprietario == msg.sender, \"Solo il proprietario del onchain o del contratto ha il permesso di rimuovere un contratto\");\n        delete contracts[_id];\n        emit ContrattoRimosso(_id, contracts[_id].nome, msg.sender);\n    }\n    \n    function cambiaProprietario(uint _id, address _nuovoProprietario) public {\n        require(msg.sender == owner, \"Solo il proprietario dell'onchain ha il permesso di cambiare il proprietario di un contratto\");\n        contracts[_id].proprietario = _nuovoProprietario;\n    }\n\n\n    function getContracts(uint _id) public view returns (Contract memory) {\n        require(contracts[_id].id != 0, \"Il contratto non esiste\");\n        Contract memory c = contracts[_id];\n        return c;\n    }\n\n    \n    function getContrattiByProprietario(address _proprietario) public view returns (uint[] memory) {\n        uint[] memory risultati = new uint[](numContratti);\n        uint numRisultati = 0;\n        for (uint i = 1; i <= numContratti; i++) {\n            if (contracts[i].proprietario == _proprietario) {\n                risultati[numRisultati] = contracts[i].id;\n                numRisultati++;\n            }\n        }\n        uint[] memory risultatiFinali = new uint[](numRisultati);\n        for (uint i = 0; i < numRisultati; i++) {\n            risultatiFinali[i] = risultati[i];\n        }\n        return risultatiFinali;\n    }\n    \n\n    function setCounter(uint8 counter) public {\n        count = (counter + 1) % 3;\n    }\n    \n    function getCounter() public view returns (uint8) {\n        return count;\n    }\n    \n    function getNextAddress() public returns (string memory) {\n        string memory nextAddrs = \"\";\n\n        uint8 counter = getCounter();\n\n        if (counter == 0) {\n            nextAddrs = blockChain1;\n        } else if (counter == 1) {\n            nextAddrs = blockChain2;\n        } else if (counter == 2) {\n            nextAddrs = blockChain3;\n        }\n\n        setCounter(counter);\n\n        emit NextAddr(nextAddrs, counter);\n\n        return (nextAddrs);\n    }\n\n\n\n}",
  "sourcePath": "C:\\Users\\miche\\Desktop\\software_security-main\\contracts\\onchain.sol",
  "compiler": {
    "name": "solc",
    "version": "0.8.0+commit.c7dfd78e.Emscripten.clang"
  },
  "schemaVersion": "3.4.16",
  "updatedAt": "2024-12-10T10:53:31.951Z",
  "devdoc": {
    "kind": "dev",
    "methods": {},
    "version": 1
  },
  "userdoc": {
    "kind": "user",
    "methods": {},
    "version": 1
  }
}